:020000040800F2
:10000000D0070020A90100080F190008B515000845
:100010000D19000843080008F31A0008000000004A
:10002000000000000000000000000000131900089C
:100030004508000800000000111900081519000803
:10004000C3010008C3010008C3010008C301000880
:10005000C3010008C3010008C3010008C301000870
:10006000C3010008C3010008C3010008C301000860
:10007000C3010008C3010008C3010008C301000850
:10008000C3010008C3010008C3010008C301000840
:10009000C3010008C3010008C3010008C301000830
:1000A000C3010008C3010008C3010008C301000820
:1000B000C3010008C3010008C3010008C301000810
:1000C000C3010008C3010008C3010008C301000800
:1000D000C3010008C3010008C3010008C3010008F0
:1000E000C3010008C3010008C301000800F002F8C2
:1000F00000F04BF80AA090E8000C82448344AAF177
:100100000107DA4501D100F040F8AFF2090EBAE874
:100110000F0013F0010F18BFFB1A43F0010318473B
:100120004822000068220000103A24BF78C878C135
:10013000FAD8520724BF30C830C144BF04680C60ED
:10014000704700000023002400250026103A28BF35
:1001500078C1FBD8520728BF30C148BF0B60704739
:10016000642900F07D80782900F0B6800020704777
:100170001FB500F003FB04000020002102F0ACF8E2
:10018000401C60601FBD10B510BD00F0D2FA1146D2
:10019000FFF7EEFF01F086FE00F002FB03B4FFF76D
:1001A000F2FF03BC00F046FB0948804709480047BE
:1001B000FEE7FEE7FEE7FEE7FEE7FEE7FEE7FEE717
:1001C000FEE7FEE704480549054A064B7047000074
:1001D00077190008ED000008D0010020D0070020AA
:1001E000D0030020D00300200FB41CB5074B06AA93
:1001F0007B4469460090059800F0EFF900206946BD
:1002000000F0FEF91CBC5DF814FB00000D040000BA
:1002100070B5044685690068C10601D5302600E046
:100220002026C00707D070BDD4E901213046904791
:10023000206A401C20626D1EF6D570BD70B5044664
:1002400085690078C00707D170BDD4E9012120205D
:100250009047206A401C20626D1EF6D570BD0000DC
:100260002DE9F0410646002410687529314616A58F
:1002700010D0AFF30080002802DA404213A507E057
:1002800031688A0701D512A502E0490704D511A5F6
:10029000012401E0AFF3008000210A2206F12407C7
:1002A00009E0B0FBF2FCB0FBF2F302FB1C003030C3
:1002B00078541846491C0028F3D123462A46304674
:1002C000BDE8F04100F02AB9000000002D00000058
:1002D0002B0000002000000070B504460D462146AA
:1002E0001068AFF300802188090502D50F4A7A44CF
:1002F00002E00E4A7A440E32002104F1240305E0A4
:1003000000F00F060009965D5E54491C0028F7D1E5
:1003100020780023000704D5702D02D009B10223F4
:1003200011322046BDE8704000F0F8B83C200000D3
:100330002DE9F05F894604464FF0000ADFF824B14A
:10034000FB44C0F820A02046E168884700287DD003
:10035000252806D0D4E901219047206A401C20625C
:10036000F1E700255F462046E168884720280646D9
:1003700007DB312E05D2B81910F8200C08B105435F
:10038000F1E7A80701D525F00405C4F81CA0002753
:10039000C4F818A02A2E09D0304601F0BBFB38B3B0
:1003A00004EB8708303EC8F8186019E059F8041BC0
:1003B000204604EB87029161E1688847012F0646D9
:1003C00018D1E069002820DA25F020051DE0D8F8D2
:1003D000180000EB800006EB40003038C8F8180029
:1003E0002046E1688847064601F094FB0028EED1DC
:1003F000012F0AD02E2E08D12046E16888477F1CA5
:100400000646022F45F02005C4DBA069002803DA68
:10041000404245F00105A061E80701D025F0100534
:10042000A6B1A6F14100192802D8203645F400658E
:100430004A463146204625604D46FFF791FE60B1A1
:10044000012807D0ED1D25F0070000E007E000F1CE
:10045000080978E705F1040975E730467AE7206A6C
:10046000BDE8F09F1220000070B5064600F052F87B
:100470000468054630460A22002100F0C6F82C60C8
:1004800070BD10B5431C02E010F8011B71B181076B
:10049000FAD14FF0013202C88C1A8C4314EAC2110F
:1004A000F9D0C01A0A0603D0C01E10BDC01A10BD74
:1004B0000A0401D0801E10BD0902FCD0401E10BDF0
:1004C0004FF0000200B5134694469646203922BFED
:1004D000A0E80C50A0E80C50B1F12001BFF4F7AF38
:1004E000090728BFA0E80C5048BF0CC05DF804EB1A
:1004F000890028BF40F8042B08BF704748BF20F888
:10050000022B11F0804F18BF00F8012B7047704785
:100510007047704700487047700100202DE9F04790
:100520000D4699469246044600F124080168880663
:1005300004D5E06921F01001216000E00120A8420B
:1005400001DD471B00E00027A1697A1902EB0900D1
:10055000081AA0612078C00602D42046FFF758FE92
:10056000002608E0D4E901211AF806009047206A25
:10057000401C761C20624E45F4DB2078C0060AD56C
:100580002046FFF745FE06E0D4E9012130209047E0
:10059000206A401C2062381EA7F10107F4DC07E046
:1005A000D4E9012118F805009047206A401C206218
:1005B000281EA5F10105F3DC2046FFF73FFE207859
:1005C000000602D50220BDE8F0870120FBE700000D
:1005D00001694A1C02610878704700B58FB0CDE907
:1005E00001310021059105497944CDE903101146F7
:1005F0006846FFF79DFE0FB000BD0000E5FFFFFF5E
:100600000A6802F8010B0A6070472DE9F04791462D
:100610000F4680460446002614F8015B2DB100F019
:1006200031F80068405DC007F6D12B2D02D02D2D8A
:1006300018D0641E4A463946204600F02BF827B1F0
:100640003968A14201D1C7F800804FF0020471055A
:100650000BD54042002803DDFFF75CFF0460A007D4
:10066000BDE8F08746F48066E4E70028F8DAFFF793
:1006700051FF04606FF00040F2E70000004870474F
:100680007001002010B500F079F8001D10BD00BF0A
:10069000491C00002DE9F05F824615468B46002775
:1006A0000AF10104B9460078302801D09DB113E069
:1006B00014F8010B0127782803D0582801D045B140
:1006C0000AE00DB1102D07D1002714F8010B1025F9
:1006D00002E0082500E00A250026B0460EE005FBF2
:1006E000080005FB06F101271FFA80F801EB104610
:1006F000B6F5803F00D3B94614F8010B294600F047
:1007000041F80028EBDABBF1000F05D00FB1641EF1
:1007100000E05446CBF80040B9F1000F06D0FFF7D7
:10072000F9FE02210160C81EBDE8F09F48EA0640BC
:10073000FAE77546FFF7A2FFAE4605006946534645
:1007400020F00700854618B020B5FFF73BFDBDE857
:1007500020404FF000064FF000074FF000084FF028
:10076000000B21F00701AC46ACE8C009ACE8C009B9
:10077000ACE8C009ACE8C0098D4670470048704736
:10078000900100203A2800D2303820F02002412A7F
:1007900001D3A2F13700884201D34FF0FF307047F8
:1007A00010B50446AFF300802046BDE81040FFF7C7
:1007B000F5BC00004FF0013C50F8042B51F8043B0D
:1007C0009A4221D1A2EB0C03934313EACC1317D125
:1007D00050F8042B51F8043B9A4215D1A2EB0C03BC
:1007E000934313EACC130BD150F8042B51F8043B7C
:1007F0009A4209D1A2EB0C03934313EACC13DBD04A
:100800004FF00000704700BFD01A01BAB1FA81F171
:1008100001F0180122FA01F0CB40C1F12001DBB256
:10082000C0B2C01A2CFA01F3D11A914311EAC311D4
:10083000E6D1704701491820ABBEFEE72600020052
:100840007047FEE77047000070B5044600F008F9F5
:100850000546601C02D004480078044400F000F90A
:10086000401BA042FAD370BD2C0000202DE9F84FA8
:10087000DFF8B8910024A9F1040B23460F2709F1F2
:10088000040AABF1040EC9E00125A5402A40AA42A2
:100890007DD1674ED1F804C0ACEB0608B44532D028
:1008A00014DCBCF1030F3AD009DCBCF1000F2AD0F4
:1008B000BCF1010F1CD0BCF1020F31D11DE0BCF125
:1008C000110F17D0BCF1120F2AD119E0B8F5881F0B
:1008D00019D006DCB8F5803F15D0B8F5801F1FD1C0
:1008E00011E0B8F5001F0ED0B8F5041F18D10AE0CA
:1008F000CB6815E0CB681B1D12E0CB6808330FE016
:10090000CB680C330CE08B682BB1012B4FF0080344
:1009100003D0456104E0042302E0056100E0002308
:10092000FF2A01D8064601E000F104064FEA8405DB
:1009300001D9A5F12005D6F8008007FA05FC28EAC0
:100940000C0803FA05F548EA0508C6F800804D686A
:10095000ED0062D5374DAE6946F00106AE61AD6976
:1009600024F0030605F001050095334D06EB050C58
:10097000DCF80850A607360F07FA06F825EA08053E
:10098000DFF8B880404503D14FF0000817E044E09D
:10099000DFF8AC80404502D14FF001080FE0DFF8EE
:1009A000A480404502D14FF0020808E0DFF89880AB
:1009B000404502D14FF0030801E04FF0040808FA67
:1009C00006F848EA0508CCF808804D68D9F80060B8
:1009D000ED024D4601D5164300E096432E604D686A
:1009E000DAF80060AD02554601D5164300E09643A3
:1009F0002E604D68DBF80060AD035D4601D51643FF
:100A000000E096432E604D68DEF80060ED03754609
:100A100001D5164300E096432E60641C0D682A46FB
:100A2000E5407FF431AFBDE8F88F000008040140D5
:100A300000001110001002400000014000080140B9
:100A4000000C014000100140001401408068084083
:100A500000D0012070470AB1016170470904FBE72B
:100A600001488068704700002C00002070B5040029
:100A700025D094F83D00002520B984F83C5020464C
:100A800000F04EF9242084F83D002068016821F030
:100A9000010101602068016841F4004101602068A3
:100AA000016821F40041016000F088FA4D4A616854
:100AB000914201D84C4900E04C49884201D20120C2
:100AC00070BD4B492368B0FBF1F15E6826F03F062C
:100AD0000E435E606368934206D94FF496735943A0
:100AE0004FF47A73B1FBF3F12368491C1E6A26F0B8
:100AF0003F06314319626168914210D84900401E97
:100B0000B0FBF1F2521CC2F30B02042A01D2042002
:100B100022E0B0FBF1F0401CC0F30B001CE0A26827
:100B2000F2B301EBC10303EB0116431EB3FBF6F373
:100B30005B1C43F480431B0549D092B301EBC10217
:100B400002EB0111401EB0FBF1F0401CC0F30B00A2
:100B500040F4804040F400402168CA694CF6FF73BD
:100B60009A431043C861D4E9071001432068026822
:100B700022F0C00211430160D4E90301014320685F
:100B8000826848F2FF339A4311438160D4E905013A
:100B900008432168CA6822F0FF021043C86001E0E0
:100BA0000EE016E02068016841F001010160256453
:100BB000202084F83D00256384F83E50002070BD5D
:100BC00001EB4106431EB3FBF6F35B1CB3E70120C8
:100BD000C2E701EB4101401EB0FBF1F0401CC0F345
:100BE0000B00B7E7A086010080841E0000093D00CD
:100BF00040420F002DE9F84F1F4690468A460446B2
:100C0000DDF82890FFF72CFF054694F83D002028DA
:100C10007FD11923012240492046009500F05CFD58
:100C2000002876D194F83C00012872D0012084F885
:100C30003C0020680168C90703D1016841F0010147
:100C400001602068016821F400610160212084F8BE
:100C50003D00102084F83E0000262664C4F824805D
:100C60006785608D20852D48E0622B464A465146B7
:100C7000204600F0B7FC90B9206841698069009077
:100C800036E02A464946204600F0CCFD50B1206CA3
:100C9000042804D12068016841F40071016001203A
:100CA000BDE8F88F606A216800780861606A401CBE
:100CB0006062618D491E6185218D491E89B2218541
:100CC00022685369DB435B070BD451B10078106194
:100CD000606A401C6062608D401E6085208D401EF1
:100CE00020852A464946204600F0CAFC0028CED17D
:100CF000208D0028C5D154F83D0B016841F40071E6
:100D00000160202004F81E09E67766770020C7E717
:100D1000FFE70220C4E70000020010000000FFFF10
:100D200010B586B0002100910191029103910068F5
:100D30000F4988421AD10F4CA06940F00800A06109
:100D4000A069694600F008000490C02000901220BD
:100D50000190032003900848FFF788FDE06940F404
:100D60000010E061E06900F40010049006B010BDCE
:100D70000054004000100240000C0140024881680D
:100D800002781144816070472C000020074810B59C
:100D9000016841F010010160032000F067F80F20A6
:100DA00000F006F800F024F8002010BD00200240FA
:100DB00070B50D4D04464FF47A712878B1FBF0F010
:100DC0000A490968B1FBF0F000F0CEFA48B9102CDE
:100DD00007D200222146501E00F028F800206C6047
:100DE00070BD012070BD00002C00002038000020E4
:100DF0000C4808B5816941F001018161816901F008
:100E000001010091C16941F08051C161C06900F0E8
:100E1000805000900448416821F0E06141F0007189
:100E2000416008BD0010024000000140F0B40E4BCC
:100E30001B680C46C3F30223C3F10705042D00D938
:100E40000425191D072901D2002300E0DB1E01261D
:100E500006FA05F1491E214099409E40761E164033
:100E60003143F0BC00F046BE0CED00E0064900F056
:100E7000070208684FF6FF03184040EA0220034AC1
:100E800010430860704700000CED00E00000FA0518
:100E90002DE9F0470F46050061D0434E306800F061
:100EA0000700B84209D2306820F0070038433060AC
:100EB000306800F00700B84251D128683B4C8107E8
:100EC00012D5400703D5606840F4E0606060287880
:100ED000000703D5606840F4605060606068A968EE
:100EE00020F0F000084360602878C00728D06868C8
:100EF000012810D02168022810D0890700292EDA95
:100F0000616821F0030101436160FFF7A9FD80469C
:100F100041F288390DE021688903EFE78901EDE7A7
:100F2000FFF79EFDA0EB0801494502D90320BDE86B
:100F3000F0876068696800F00C00B0EB810FEFD1BA
:100F4000306800F00700B8420BD9306820F0070085
:100F500038433060306800F00700B84201D001200B
:100F6000E5E72878400705D56068E96820F4E06087
:100F7000084360602878000706D56068296920F476
:100F8000605040EAC100606000F038F86168084ACB
:100F9000C1F30311515CC840064908600648006867
:100FA000FFF706FF0020C2E70020024000100240C9
:100FB00016230008380000203000002004480549AE
:100FC00000684968044AC1F30221515CC840704777
:100FD000380000200010024026230008044805497C
:100FE00000684968044AC1F3C221515CC840704797
:100FF0003800002000100240262300080E4A5168E5
:101000000E4801F00C03042B11D0082B0FD10C4813
:10101000C1F38343C903C05C0AD55168084AC1F3D0
:101020004041921E515C054A5043B0FBF1F07047BD
:1010300004494843704700000010024000127A0043
:101040000623000800093D002DE9F84F040070D088
:101050002078C04DC00749D06868C0F381000128DE
:1010600007D06868C0F38100022809D16868C0030E
:1010700006D52868800339D560680028E7D035E0B8
:101080006068B0F5803F0BD010B1B0F5A02F11D043
:10109000286820F480302860286820F4802002E04E
:1010A000286840F480302860606890B1FFF7D8FC71
:1010B00006460AE0286840F480202860F0E700BF78
:1010C000FFF7CEFC801B642873D828688003F7D50F
:1010D0000CE0FFF7C5FC064605E000BFFFF7C0FCCB
:1010E000801B6428F0D828688003F7D420789A4EB3
:1010F00080074FF001094FF0000839D5686810F0FB
:101100000C0F07D06868C0F38100022809D1686815
:10111000C00306D42868800714D52069012808D1A7
:1011200010E02069B0B1C6F80090FFF799FC0746BF
:1011300005E00AE1FFF794FCC01B0228C4D8286828
:101140008007F7D52868616920F0F80040EAC100FF
:1011500028600DE0C6F80080FFF782FC074604E037
:10116000FFF77EFCC01B022823D828688007F7D42D
:10117000207800072CD57948A169D9B1C0F8009032
:10118000FFF76EFC074604E0FFF76AFCC01B02286D
:101190000FD8686A8007F7D571484FF4FA51006894
:1011A000B0FBF1F0009000BF0098411E0091FAD210
:1011B0000EE080E0C0F80080FFF752FC074604E034
:1011C000FFF74EFCC01B022875D8686A8007F7D469
:1011D0002078400760D5E8690027C00008D4E86996
:1011E00040F08050E861E869012700F080500090ED
:1011F0005C480168C90513D40168834641F48071D5
:101200000160FFF72DFC824606E000BFFFF728FCD7
:10121000A0EB0A0064284ED8DBF80000C005F5D525
:10122000E06801280AD008B1052813D0286A20F008
:1012300001002862286A20F0040002E0286A40F0D9
:1012400001002862E06841F2883B98B1FFF708FC92
:1012500082460BE0286A40F004002862EEE700BFF7
:10126000FFF7FEFBA0EB0A0159455AD8286A800710
:10127000F6D50CE0FFF7F4FB824605E0FFF7F0FB44
:10128000A0EB0A0159454CD8286A8007F6D41FB153
:10129000E86920F08050E861E06988B36968C1F3CB
:1012A0008101022944D00228C6F8608004D0FFF7EB
:1012B000D7FB044638E034E0FFF7D2FB074604E0F2
:1012C000FFF7CEFBC01B02282BD828688001F7D47B
:1012D000206AB0F5803F05D16868A16820F400302D
:1012E00008436860D4E908010843696821F474116F
:1012F00008436860C6F86090FFF7B2FB044606E05A
:1013000025E000BFFFF7ACFB001B022809D82868C6
:101310008001F7D51BE000BFFFF7A2FB001B0228EE
:1013200002D90320BDE8F88F28688001F4D40EE0CC
:101330000128F7D06868226A00F48031914204D114
:10134000616A00F47010884201D00120EAE70020B1
:10135000E8E70000001002400000424280044242E0
:10136000380000200070004010B5401EB0F1807FB2
:1013700001D3012010BD4FF0E02460610F21601700
:1013800000F0B8FB0020A06107202061002010BD04
:1013900070B5040004D094F84100002510B106E0B7
:1013A000012070BD84F84050204600F023F824202E
:1013B00084F841002068C16821F40051C1602046D2
:1013C00000F002FB2068016921F49041016120686E
:1013D000416921F02A0141612068C16841F400514E
:1013E000C1606564202084F8410084F84200656390
:1013F000002070BD30B585B00024009401940294A3
:10140000039400681449884224D11448816941F446
:1014100080418161816901F480410491816941F0D9
:101420000401816180690E4D00F0040004904FF4C6
:101430000070009002200190032003906946284626
:10144000FFF714FA2815CDE90004694628460294EE
:10145000FFF70CFA05B030BD003801400010024023
:10146000000801402DE9F84F044690F842009A46E2
:1014700016460D46202802D00220BDE8F88FB5B1EF
:10148000AEB100206064222184F842102063FFF78F
:10149000E7FAA6858146E685A0684FF480582027A4
:1014A000404501D1206920B12E46002529E00120C8
:1014B000E3E7002625E04B46002220212046CDF818
:1014C00000A000F0DDFA18B184F842700320D4E7E0
:1014D00026B1A06840451AD038B108E020684068BD
:1014E000C0F3080025F8020B08E0206978B12068F5
:1014F000406800F07F0000BF06F8010BE08D401E41
:10150000E085E08D0028D6D184F84270B5E72068E8
:101510004068F1E72DE9F843044690F84100984609
:1015200016460D46202802D00220BDE8F88385B17A
:101530007EB100206064212084F84100FFF790FA1A
:10154000A6848146E684A0682027B0F5805F02D09B
:1015500003E00120E9E7206910B12E4600250EE0E6
:1015600000260CE08021204600F08AFAA8B9C6B116
:1015700016F8010B21684860E08C401EE084E08C86
:101580004B464FF00002CDF800800028EAD14FF022
:101590004001204600F074FA40B184F84170032005
:1015A000C3E735F8020BC0F30800E3E784F84170A5
:1015B0000020BAE7FEE701684A69D24352050FD41A
:1015C0006FF480624A61002140F8301F202242738C
:1015D0008173026942F004020261017301207047C5
:1015E00000207047F8B50446C06A1E460D461746EF
:1015F000082807D0012805D010F5803F02D0206BC5
:10160000122804D12068016841F4807101601346FA
:1016100000224FF001112046009600F05DF840B125
:1016200020680068C00502D54FF4007020640320D4
:10163000F8BD2069B0F5804F0ED00620216800EA81
:10164000D51040F0F000086133463A460B49204679
:1016500000F08AF878B902E005F0FE0000E0E8B298
:1016600021680861054933463A46891F204600F043
:101670007BF80028DCD00120F8BD00000800010044
:1016800070B516460D4604461EE02046FFF793FF50
:1016900008B1012070BD681C16D0FFF7E1F9801B6E
:1016A000A84200D885B920684069C04340070BD5DF
:1016B000002044F8300F20216173A073216941F0AC
:1016C000200121612073E4E720684069C04340079E
:1016D000DBD4002070BD00002DE9F0479846174686
:1016E0000D460446C1F30746DDF820902AE000BF0E
:1016F000B8F1FF3F26D0FFF7B3F9A0EB0901414550
:1017000002D8B8F1000F1DD12068012E16D08069D3
:1017100025EA00000004000C12D00020B84211D1CC
:10172000002044F8300F20216173A073216941F03B
:101730002001216120730120BDE8F0874069E7E7BF
:101740000120EBE72068012E0AD0806925EA00001D
:101750000004000C06D00020B842C9D00020EBE7FE
:101760004069F3E70120F7E72DE9F0479846164670
:101770000D4604464FF000094FF0200AC1F3074719
:1017800023E020684069C043400515D42068016803
:1017900041F40071016021686FF480604861C4F811
:1017A000309084F83DA084F83E90216C41F0040113
:1017B000216484F83C9021E0701C06D0FFF750F9BA
:1017C000A0EB0800B04203D816B1012F1FD021E0D2
:1017D0002068012F15D0806925EA00000004000C64
:1017E00018D000BF44F8309F84F80DA084F80E9004
:1017F000216941F02001216184F80C900120BDE8AD
:10180000F087406925EA00000004000CEAD1206856
:10181000406901E02068806925EA00000004000CAE
:10182000AFD1ECE770B516460D4604461EE02046E3
:10183000FFF7C1FE08B1012070BD681C16D0FFF78C
:101840000FF9801BA84200D885B920684069C043C1
:1018500000060BD5002044F8300F20216173A073DF
:10186000216941F0200121612073E4E7206840698B
:10187000C0430006DBD4002070BD000070B586B008
:1018800000241F480094019402940394816941F05C
:1018900020018161816901F020010491816941F099
:1018A00004018161816901F004010491816941F0C1
:1018B000080181618069134E00F008000490002245
:1018C0000F213046FFF7C7F80F200125CDE90005AD
:1018D0000220CDE9024069463046FEF7C7FFF020FE
:1018E0008DE8310069463046FEF7C0FF40F2034004
:1018F0008DE8310069460448FEF7B8FF06B070BDB8
:101900000010024000080140000C0140FEE7FEE725
:1019100070477047FFF732BA30B58FB0282168465C
:10192000FEF7CEFD14210AA8FEF7CAFD0121080426
:10193000CDE900100024029402250491CDE907505E
:101940004FF4E01009906846FFF77EFB08B172B6CD
:10195000FEE70F20CDE90A054FF48060CDE90C4089
:1019600002210AA80E94FFF793FA002801D072B65C
:10197000FEE70FB030BD704701680C3151E8002F11
:1019800022F4907241E80023002BF5D10168143154
:1019900051E8002F22F0010241E80023002BF5D18D
:1019A000016B012909D101680C3151E8002F22F0A7
:1019B000100241E80023002BF5D1202180F84210CD
:1019C000002101637047000070B50446006801699A
:1019D000E26821F44051114301612169A068084384
:1019E000616908432168CA6841F20C639A43024363
:1019F000CA6020684169A26921F4407111434161C4
:101A00001E492068884202D1FFF7E8FA01E0FFF79B
:101A1000D5FA00EBC00101EB001260686421800080
:101A2000B2FBF0F3B3FBF1F36FF018067343B2FBB4
:101A3000F0F5B2FBF0F605EB8305322303EB051559
:101A4000B5FBF1F5B6FBF1F605F0F00505EB061573
:101A5000B2FBF0F6B2FBF0F0B0FBF1F06FF0180261
:101A6000504306EB800003EB0010B0FBF1F021685F
:101A700000F00F002844886070BD0000003801406D
:101A80002DE9F843984617460D460446089E24E083
:101A9000701C22D0FEF7E4FFA0EB0800B0421AD879
:101AA000CEB12068C168490717D5802D15D0402DCB
:101AB00013D00168C94309070FD4016800254068A5
:101AC00000902046FFF758FF0820606484F84050DB
:101AD0000120BDE8F8830320FBE72068006835EAB1
:101AE000000004D00020B842D2D00020F1E701204D
:101AF000F9E7FEE70907090E002804DB00F1E02002
:101B000080F80014704700F00F0000F1E02080F82A
:101B1000141D704730380A2801D201207047002078
:101B20007047000010B5094C207801280AD002281F
:101B300006D0032803D100F051FA0020207010BD18
:101B400000F0BEFABDE8104000F0F2B9000000203D
:101B50000F2903D801228A40424090B27047FFB556
:101B600001216C464A1E20FA02F202F00102625480
:101B7000491C0C29F6DD9DF801109DF803309DF8F5
:101B800005709DF80720594087EA020041409DF802
:101B900002009DF809C058409DF806309DF80B6082
:101BA00053409DF8042058407A409DF80A505A400E
:101BB00068409DF808309DF80C7083EA0C0375406E
:101BC0006B407B407A40DB0081EA0C01704043EAC5
:101BD0008202714042EA4000084310F0FF0005D045
:101BE0000C2803D8215C81F0010121549DF80300E9
:101BF0009DF8051040EA41009DF8061040EA81007A
:101C00009DF8071040EAC1009DF8091040EA011054
:101C10009DF80A1040EA41109DF80B1040EA81102F
:101C20009DF80C1004B040EAC110C0B2F0BD000035
:101C30002DE9F04F8FB000210DF1240220FA01F3BD
:101C400003F001035354491C0829F7DB9DF82400D5
:101C50009DF825609DF827409DF8281002467040A9
:101C600084EA010358409DF82A509DF826C09DF84B
:101C7000297080EA050A82EA0C0084EA07035840CA
:101C80009DF82B8080EA050B86EA0C0384EA0800A5
:101C900083EA000981EA070085EA080380EA030E67
:101CA000009B0FB043EA0A0343EA4B0343EA820076
:101CB00040EAC90040EA061040EA4C1040EA8412AB
:101CC00042EACE1040EA012040EA472040EA85205F
:101CD00040EAC82080B2BDE8F08F00002DE9F04155
:101CE00000240F460546264600F040F90100FBD0CF
:101CF00023290FD02A2910D0781E844206DA2955CC
:101D0000641CE4B20F482E5500F083F8C820FEF79B
:101D10009BFDE9E72E55BDE8F081002CF6D0641E4E
:101D2000E4B201222E552146064800F01DF806A116
:101D3000044800F070F801222146024800F014F82F
:101D4000E4E70000140000202000000070B5054604
:101D5000802100F06CF800242021284600F084F84F
:101D6000641C502CF8DB70BD3AB1012A07D0022A5E
:101D700009D0032A09D1D43102E0803100E0C0311A
:101D8000C9B200F054B89431FAE7704710B5044670
:101D90003220FEF759FD3021204600F048F805209A
:101DA000FEF752FD3021204600F041F80120FEF7F9
:101DB0004BFD3021204600F03AF80A20FEF744FDA2
:101DC0002021204600F033F80A20FEF73DFD2821AF
:101DD000204600F02CF80120FEF736FD08212046B1
:101DE00000F025F80120FEF72FFD0121204600F02C
:101DF0001EF80220FEF728FD0621204600F017F805
:101E00000120FEF721FD2046BDE810400C2100F026
:101E10000EB800F029B870B50C46054603E0284618
:101E2000641C00F021F821780029F8D170BD1CB5A0
:101E300001F0F00242F00C038DF8043042F0080289
:101E400009018DF8052041F00C028DF8062041F0C3
:101E500008018DF8071064210091017900680423BE
:101E600001AAFEF7C7FE1CBD1CB501F0F00242F04E
:101E70000D038DF8043042F0090209018DF80520A8
:101E800041F00D028DF8062041F009018DF8071090
:101E90006421009101790068042301AAFEF7AAFEDB
:101EA0001CBD0000FEF772FFFFF736FDFFF7E6FCF2
:101EB0001B4D1A48002428601A48C5E901044FF454
:101EC0008040C5E903406C61AC61EC6128462C623E
:101ED000FEF7CCFD08B172B6FEE711481249543046
:101EE00001604FF4E131C0E901140C21C460C0E984
:101EF00004418461C461FFF74BFA08B172B6FEE792
:101F00000A484E2105600171FFF740FF00F066F8B6
:101F100000F0A4F8FFF706FEFAE7000000540040C6
:101F20003C000020A0860100003801401400002081
:101F300010B50C48FFF70AFF0B493222A1F1AC00A3
:101F400000F09EF9002211460648FFF70DFF0649F2
:101F50000448FFF760FFBDE810404FF4FA60FEF759
:101F600073BC0000140000203C0100202DE9F04764
:101F7000DFF864900026A9F1010505F105080024A9
:101F80004F460122395DE868FEF765FD641C042CAC
:101F9000F7DBB95D0022E868FEF75DFD00244746E7
:101FA0002869395DFEF752FD38B91420FEF74CFC64
:101FB000395D2869FEF74AFD40B1641C042CEFDB53
:101FC000761C042EDBDB0020BDE8F08702481B30C6
:101FD00000EB8600005DF7E70100002010B5144813
:101FE000FFF7B4FE002202211148FFF7BDFE11A148
:101FF0000F48FFF710FF012200210D48FFF7B4FE44
:1020000010A10B48FFF707FF012205210848FFF741
:10201000ABFE0EA10648FFF7FEFE01220A2104488E
:10202000FFF7A2FEBDE810400AA10148FFF7F3BE8A
:102030001400002043686F7365204F7074696F6EE1
:1020400000000000312E545800000000322E52587B
:1020500000000000332E45786974000070B5164DFD
:1020600001212846FEF7F2FC2E1550B10221284628
:10207000FEF7ECFC28B131462846FEF7E7FC0028C5
:1020800019D11420FEF7E0FB01212846FEF7DEFC03
:102090000A4C60B102212846FEF7D8FC48B131460F
:1020A0002846FEF7D3FC002805D1032002E00220D9
:1020B00000E00120207070BD000C014000000020F5
:1020C000B6B04FF4FA77BE005048FFF73FFE50A17C
:1020D0004E48FFF7A0FE012200214C48FFF744FEC6
:1020E00032214E48FFF7FAFD4C48FEF7BDF9054690
:1020F00002464BA127A8FEF777F8484827A9483899
:1021000000F0DBF86420FEF79FFB4048FFF71EFE5F
:1021100048A13E48FFF77FFE012200213B48FFF720
:1021200023FE3846FEF790FB3C4832213230FFF761
:10213000D5FD3A483230FEF797F90446024640A1F1
:1021400034A8FEF751F8354834A9483800F0B5F8FE
:102150006420FEF779FBE8B2FFF76AFD0546024608
:102160003BA16846FEF740F82C486946483800F025
:10217000A4F86420FEF768FB21462846FFF7E8FC38
:102180000446024636A10DA8FEF72EF823480DA9F5
:10219000483800F092F86420FEF756FB2046FFF71F
:1021A000DEFC024632A11AA8FEF71EF81B481AA947
:1021B000483800F082F86420FEF746FB1348FFF72A
:1021C000C5FD002211461148FFF7CEFD69460F48B4
:1021D000FFF721FE012200210C48FFF7C5FD0DA9E4
:1021E0000A48FFF718FE3046FEF72EFB0748FFF7B8
:1021F000ADFD002211460548FFF7B6FD1AA90348B8
:10220000FFF709FE3046FEF71FFB5DE714000020D4
:10221000496E70757420446174613A00D8000020E2
:10222000496E70757420446174613A253034580DDC
:102230000A0000004E686170206269743A00000074
:1022400042697420506F733A2025640D0A00000023
:102250004265666F72653A20253034580D0A0000D9
:1022600041667465723A2025303458200D0A00000A
:10227000496E70757465643A20253034580000004A
:102280002DE9F8430024661E0D468046571E33464E
:10229000012269464046FFF7E5F89DF800000D2849
:1022A00007D00A2805D0BC4203DA2855641CA4B222
:1022B000EDE700202855BDE8F88370B505460C46CB
:1022C0000846FEF7DEF882B221462846BDE8704097
:1022D0004FF0FF33FFF71EB910B500290AD0087878
:1022E000002807D005487844FEF764FA002801D09A
:1022F000002010BD0248784410BD0000A20000007C
:102300009A000000010202030405060708090A0BEF
:102310000C0D0E0F10100000000000000000010264
:10232000030406070809000000000102030430311D
:1023300032333435363738394142434445464030EC
:10234000580030313233343536373839616263649E
:1023500065664030780004000008000000000000BE
:102360000002000100001000982400080000002076
:102370003C00000028010008D42400083C00002094
:102380009407000044010008100100004300000011
:10239000F8FFFFFF00404040404040404040414186
:1023A000414141404040404040404040404040402A
:1023B00040404040400502020202020202020202C4
:1023C00002020202022020202020202020202002C1
:1023D0000202020202029090909090901010101051
:1023E00010101010101010101010101010101010ED
:1023F0000202020202028888888888880808080881
:10240000080808080808080808080808080808084C
:102410000202020240000000000000000000000074
:1024200000000000000000000000000000000000AC
:10243000000000000000000000000000000000009C
:10244000000000000000000000000000000000008C
:10245000000000000000000000000000000000007C
:10246000000000000000000000000000000000006C
:10247000000000000000000000000000000000005C
:10248000000000000000000000000000000000004C
:1024900000000000000000000001020408102040BD
:1024A000800000000008014000080140000000001A
:1024B0000000000031323341343536423738394379
:1024C0002A3023440100000010000000000000003A
:0424D00000127A007C
:04000005080000ED02
:00000001FF
